{"abi":[{"type":"constructor","inputs":[{"name":"_ainuToken","type":"address","internalType":"address"},{"name":"initialOwner","type":"address","internalType":"address"}],"stateMutability":"nonpayable"},{"type":"function","name":"BASIS_POINTS","inputs":[],"outputs":[{"name":"","type":"uint256","internalType":"uint256"}],"stateMutability":"view"},{"type":"function","name":"LOCK_12_MONTHS","inputs":[],"outputs":[{"name":"","type":"uint256","internalType":"uint256"}],"stateMutability":"view"},{"type":"function","name":"LOCK_3_MONTHS","inputs":[],"outputs":[{"name":"","type":"uint256","internalType":"uint256"}],"stateMutability":"view"},{"type":"function","name":"LOCK_6_MONTHS","inputs":[],"outputs":[{"name":"","type":"uint256","internalType":"uint256"}],"stateMutability":"view"},{"type":"function","name":"MAX_TIME_WEIGHT","inputs":[],"outputs":[{"name":"","type":"uint256","internalType":"uint256"}],"stateMutability":"view"},{"type":"function","name":"MULTIPLIER_12_MONTHS","inputs":[],"outputs":[{"name":"","type":"uint256","internalType":"uint256"}],"stateMutability":"view"},{"type":"function","name":"MULTIPLIER_3_MONTHS","inputs":[],"outputs":[{"name":"","type":"uint256","internalType":"uint256"}],"stateMutability":"view"},{"type":"function","name":"MULTIPLIER_6_MONTHS","inputs":[],"outputs":[{"name":"","type":"uint256","internalType":"uint256"}],"stateMutability":"view"},{"type":"function","name":"SECONDS_PER_YEAR","inputs":[],"outputs":[{"name":"","type":"uint256","internalType":"uint256"}],"stateMutability":"view"},{"type":"function","name":"SLASH_DOWNTIME","inputs":[],"outputs":[{"name":"","type":"uint256","internalType":"uint256"}],"stateMutability":"view"},{"type":"function","name":"SLASH_FAILED_TASK","inputs":[],"outputs":[{"name":"","type":"uint256","internalType":"uint256"}],"stateMutability":"view"},{"type":"function","name":"SLASH_MALICIOUS","inputs":[],"outputs":[{"name":"","type":"uint256","internalType":"uint256"}],"stateMutability":"view"},{"type":"function","name":"STAKING_APR","inputs":[],"outputs":[{"name":"","type":"uint256","internalType":"uint256"}],"stateMutability":"view"},{"type":"function","name":"TIER_BASIC","inputs":[],"outputs":[{"name":"","type":"uint256","internalType":"uint256"}],"stateMutability":"view"},{"type":"function","name":"TIER_PREMIUM","inputs":[],"outputs":[{"name":"","type":"uint256","internalType":"uint256"}],"stateMutability":"view"},{"type":"function","name":"TIER_STANDARD","inputs":[],"outputs":[{"name":"","type":"uint256","internalType":"uint256"}],"stateMutability":"view"},{"type":"function","name":"addToStake","inputs":[{"name":"amount","type":"uint256","internalType":"uint256"}],"outputs":[],"stateMutability":"nonpayable"},{"type":"function","name":"ainuToken","inputs":[],"outputs":[{"name":"","type":"address","internalType":"contract IERC20"}],"stateMutability":"view"},{"type":"function","name":"authorizedSlashers","inputs":[{"name":"","type":"address","internalType":"address"}],"outputs":[{"name":"","type":"bool","internalType":"bool"}],"stateMutability":"view"},{"type":"function","name":"calculatePendingRewards","inputs":[{"name":"staker","type":"address","internalType":"address"}],"outputs":[{"name":"","type":"uint256","internalType":"uint256"}],"stateMutability":"view"},{"type":"function","name":"claimRewards","inputs":[],"outputs":[],"stateMutability":"nonpayable"},{"type":"function","name":"compoundRewards","inputs":[],"outputs":[],"stateMutability":"nonpayable"},{"type":"function","name":"getEffectiveAPR","inputs":[{"name":"lockDuration","type":"uint256","internalType":"uint256"}],"outputs":[{"name":"","type":"uint256","internalType":"uint256"}],"stateMutability":"pure"},{"type":"function","name":"getStake","inputs":[{"name":"staker","type":"address","internalType":"address"}],"outputs":[{"name":"","type":"tuple","internalType":"struct AINUStaking.Stake","components":[{"name":"amount","type":"uint256","internalType":"uint256"},{"name":"timestamp","type":"uint256","internalType":"uint256"},{"name":"lockDuration","type":"uint256","internalType":"uint256"},{"name":"unlockTime","type":"uint256","internalType":"uint256"},{"name":"tier","type":"uint8","internalType":"enum AINUStaking.StakeTier"},{"name":"isSlashed","type":"bool","internalType":"bool"},{"name":"slashedAmount","type":"uint256","internalType":"uint256"},{"name":"lastRewardClaim","type":"uint256","internalType":"uint256"},{"name":"accumulatedRewards","type":"uint256","internalType":"uint256"}]}],"stateMutability":"view"},{"type":"function","name":"getVotingPower","inputs":[{"name":"staker","type":"address","internalType":"address"}],"outputs":[{"name":"","type":"uint256","internalType":"uint256"}],"stateMutability":"view"},{"type":"function","name":"owner","inputs":[],"outputs":[{"name":"","type":"address","internalType":"address"}],"stateMutability":"view"},{"type":"function","name":"pause","inputs":[],"outputs":[],"stateMutability":"nonpayable"},{"type":"function","name":"paused","inputs":[],"outputs":[{"name":"","type":"bool","internalType":"bool"}],"stateMutability":"view"},{"type":"function","name":"renounceOwnership","inputs":[],"outputs":[],"stateMutability":"nonpayable"},{"type":"function","name":"setAuthorizedSlasher","inputs":[{"name":"slasher","type":"address","internalType":"address"},{"name":"authorized","type":"bool","internalType":"bool"}],"outputs":[],"stateMutability":"nonpayable"},{"type":"function","name":"slash","inputs":[{"name":"staker","type":"address","internalType":"address"},{"name":"percentage","type":"uint256","internalType":"uint256"},{"name":"reason","type":"string","internalType":"string"}],"outputs":[],"stateMutability":"nonpayable"},{"type":"function","name":"stake","inputs":[{"name":"amount","type":"uint256","internalType":"uint256"},{"name":"lockDuration","type":"uint256","internalType":"uint256"}],"outputs":[],"stateMutability":"nonpayable"},{"type":"function","name":"stakes","inputs":[{"name":"","type":"address","internalType":"address"}],"outputs":[{"name":"amount","type":"uint256","internalType":"uint256"},{"name":"timestamp","type":"uint256","internalType":"uint256"},{"name":"lockDuration","type":"uint256","internalType":"uint256"},{"name":"unlockTime","type":"uint256","internalType":"uint256"},{"name":"tier","type":"uint8","internalType":"enum AINUStaking.StakeTier"},{"name":"isSlashed","type":"bool","internalType":"bool"},{"name":"slashedAmount","type":"uint256","internalType":"uint256"},{"name":"lastRewardClaim","type":"uint256","internalType":"uint256"},{"name":"accumulatedRewards","type":"uint256","internalType":"uint256"}],"stateMutability":"view"},{"type":"function","name":"totalSlashed","inputs":[],"outputs":[{"name":"","type":"uint256","internalType":"uint256"}],"stateMutability":"view"},{"type":"function","name":"totalStaked","inputs":[],"outputs":[{"name":"","type":"uint256","internalType":"uint256"}],"stateMutability":"view"},{"type":"function","name":"transferOwnership","inputs":[{"name":"newOwner","type":"address","internalType":"address"}],"outputs":[],"stateMutability":"nonpayable"},{"type":"function","name":"unpause","inputs":[],"outputs":[],"stateMutability":"nonpayable"},{"type":"function","name":"unstake","inputs":[],"outputs":[],"stateMutability":"nonpayable"},{"type":"event","name":"OwnershipTransferred","inputs":[{"name":"previousOwner","type":"address","indexed":true,"internalType":"address"},{"name":"newOwner","type":"address","indexed":true,"internalType":"address"}],"anonymous":false},{"type":"event","name":"Paused","inputs":[{"name":"account","type":"address","indexed":false,"internalType":"address"}],"anonymous":false},{"type":"event","name":"RewardsClaimed","inputs":[{"name":"user","type":"address","indexed":true,"internalType":"address"},{"name":"amount","type":"uint256","indexed":false,"internalType":"uint256"}],"anonymous":false},{"type":"event","name":"RewardsCompounded","inputs":[{"name":"user","type":"address","indexed":true,"internalType":"address"},{"name":"amount","type":"uint256","indexed":false,"internalType":"uint256"}],"anonymous":false},{"type":"event","name":"Slashed","inputs":[{"name":"user","type":"address","indexed":true,"internalType":"address"},{"name":"amount","type":"uint256","indexed":false,"internalType":"uint256"},{"name":"reason","type":"string","indexed":false,"internalType":"string"}],"anonymous":false},{"type":"event","name":"SlasherAuthorized","inputs":[{"name":"slasher","type":"address","indexed":true,"internalType":"address"},{"name":"authorized","type":"bool","indexed":false,"internalType":"bool"}],"anonymous":false},{"type":"event","name":"Staked","inputs":[{"name":"user","type":"address","indexed":true,"internalType":"address"},{"name":"amount","type":"uint256","indexed":false,"internalType":"uint256"},{"name":"tier","type":"uint8","indexed":false,"internalType":"enum AINUStaking.StakeTier"},{"name":"lockDuration","type":"uint256","indexed":false,"internalType":"uint256"}],"anonymous":false},{"type":"event","name":"TierUpgraded","inputs":[{"name":"user","type":"address","indexed":true,"internalType":"address"},{"name":"oldTier","type":"uint8","indexed":false,"internalType":"enum AINUStaking.StakeTier"},{"name":"newTier","type":"uint8","indexed":false,"internalType":"enum AINUStaking.StakeTier"}],"anonymous":false},{"type":"event","name":"Unpaused","inputs":[{"name":"account","type":"address","indexed":false,"internalType":"address"}],"anonymous":false},{"type":"event","name":"Unstaked","inputs":[{"name":"user","type":"address","indexed":true,"internalType":"address"},{"name":"amount","type":"uint256","indexed":false,"internalType":"uint256"}],"anonymous":false},{"type":"error","name":"EnforcedPause","inputs":[]},{"type":"error","name":"ExpectedPause","inputs":[]},{"type":"error","name":"OwnableInvalidOwner","inputs":[{"name":"owner","type":"address","internalType":"address"}]},{"type":"error","name":"OwnableUnauthorizedAccount","inputs":[{"name":"account","type":"address","internalType":"address"}]},{"type":"error","name":"ReentrancyGuardReentrantCall","inputs":[]},{"type":"error","name":"SafeERC20FailedOperation","inputs":[{"name":"token","type":"address","internalType":"address"}]}],"bytecode":{"object":"0x60a03461011f57601f620019c038819003918201601f19168301916001600160401b0383118484101761012357808492604094855283398101031261011f57602061004982610137565b916001600160a01b0391829161005f9101610137565b16918215610107575f80546001600160a01b03198116851782556040519491908416907f8be0079c531659141344cd1fd0a4f28419497f9722a3daafe3b4186f6b6457e09080a360017f9b779b17422d0df92223018b32b4d1fa46e071723d6817e2486d003becc55f00551660805261187490816200014c823960805181818161026d015281816106b501528181610aa201528181610c9801528181610f0b01526110b80152f35b604051631e4fbdf760e01b81525f6004820152602490fd5b5f80fd5b634e487b7160e01b5f52604160045260245ffd5b51906001600160a01b038216820361011f5756fe604060808152600480361015610013575f80fd5b60e05f35811c908163097aad10146112495781630daa11df146102545781630ec833c614611225578163111494451461120857816314ed9dc2146111ec57816316934fc4146111515781632def66201461101e578163338038601461024f57816336cb2b8214610fa5578163372500ab14610e9b5781633bfebda114610e805781633f4ba83a14610e1257816350990803146102545781635c975abb14610ded578163678b3ee214610bc4578163685d730614610a4d578163691e037a14610a29578163715018a6146109d25781637a766460146108a65781637b0472f01461064f575080637f0c57db14610633578063817b1cd2146106155780638456cb59146105b757806388163eed1461059b5780638da5cb5b14610574578063a201bbdd14610556578063a6ad88221461053a578063aed2d908146104ff578063bb4d4436146104d3578063c00c9f7f14610343578063c0a9c35d14610326578063c17faf86146102d9578063c95ccf54146102bf578063dcc42fc21461029c578063dd089c1b14610259578063e1f1c4a714610254578063e6a69ab81461024f5763f2fde38b146101c0575f80fd5b3461024b57602036600319011261024b576101d961126e565b906101e26116c5565b6001600160a01b039182169283156102355750505f54826bffffffffffffffffffffffff60a01b8216175f55167f8be0079c531659141344cd1fd0a4f28419497f9722a3daafe3b4186f6b6457e05f80a3005b905f6024925191631e4fbdf760e01b8352820152fd5b5f80fd5b6112c1565b611284565b823461024b575f36600319011261024b57517f00000000000000000000000000000000000000000000000000000000000000006001600160a01b03168152602090f35b823461024b575f36600319011261024b5760209051683635c9adc5dea000008152f35b503461024b575f36600319011261024b5760209151908152f35b503461024b57602036600319011261024b576102f581356115e0565b906107d0918083029283040361031357506127106020925191048152f35b601190634e487b7160e01b5f525260245ffd5b823461024b575f36600319011261024b576020905162ed4e008152f35b50903461024b575f36600319011261024b5761035d611618565b6103656116f0565b335f526001602052805f2080549261037e841515611463565b80820161039260ff825460081c16156114a0565b61039b33611361565b94851561049757906103bb8660ff934260068801555f6007880155611354565b84556103c986600254611354565b6002556103e36103dd83835416955461177a565b826114e5565b541690808310156104845780821015610484575081810361043e575b5050519081527f8ce0a2fad3764c1fd039c26f784a2d7490f96db7928a834db2330abc1efd294460203392a260015f8051602061181f83398151915255005b6104589061044e845180946112a0565b60208301906112a0565b7fcbbf00b5f55f1857f9362f521999f79036413e420d1b236d6bc143af30db731a823392a25f806103ff565b602190634e487b7160e01b5f525260245ffd5b845162461bcd60e51b81526020818501526016602482015275139bc81c995dd85c991cc81d1bc818dbdb5c1bdd5b9960521b6044820152606490fd5b823461024b57602036600319011261024b576020906104f86104f361126e565b61151b565b9051908152f35b50903461024b57602036600319011261024b576020916001600160a01b0361052561126e565b165f52825260ff815f20541690519015158152f35b823461024b575f36600319011261024b57602090516107d08152f35b823461024b575f36600319011261024b576020906003549051908152f35b823461024b575f36600319011261024b575f5490516001600160a01b039091168152602090f35b823461024b575f36600319011261024b5760209051614e208152f35b823461024b575f36600319011261024b5760207f62e78cea01bee320cd4e420270b5ea74000d11b0c9f74754ebdbfc544b05a258916105f46116c5565b6105fc6116f0565b5f805460ff60a01b1916600160a01b17905551338152a1005b823461024b575f36600319011261024b576020906002549051908152f35b823461024b575f36600319011261024b5760209051613a988152f35b90503461024b578260031936011261024b5781359160243591610670611618565b6106786116f0565b683635c9adc5dea00000841061086357630784ce00831161082757335f526001602052845f20546107f2576106ac8461177a565b916106d98530337f0000000000000000000000000000000000000000000000000000000000000000611710565b6106e38442611354565b6106eb6112eb565b9286845260208401924284528885019287845260608601908152608086019161071488846112df565b60a08701915f835260c08801945f86528801954287526101008901975f8952335f5260016020528d5f2099518a555160018a015551600289015551600388015580870192519080821015610484575092826107dc97959261079b6007967fbde7f0ba1630d25515c7ab99ba47d5640b7ffb4c673b2a5464ae6791955892989d9e99966114e5565b51151561ff0082549160081b169061ff001916179055516005850155516006840155519101556107cd86600254611354565b600255519283923396846114fd565b0390a260015f8051602061181f83398151915255005b845162461bcd60e51b8152602081840152600f60248201526e416c7265616479207374616b696e6760881b6044820152606490fd5b845162461bcd60e51b815260208184015260166024820152754c6f636b206475726174696f6e20746f6f206c6f6e6760501b6044820152606490fd5b845162461bcd60e51b8152602081840152601a60248201527f416d6f756e742062656c6f77206d696e696d756d207374616b650000000000006044820152606490fd5b8391503461024b57602036600319011261024b57610120926108c661126e565b916108cf6112eb565b925f84525f60208501525f858501525f60608501525f60808501525f60a08501525f60c08501525f828501525f6101008095015260018060a01b03165f526001602052835f209361091e6112eb565b948591815483526109b8600183015495602085019687526002840154908386019182526003850154906060870191825285015493608087019261096460ff8716856112df565b60ff60a089019660081c1615158652600760058801549760c08a019889528a60068201549a01998a520154998b8d019a8b5282519c518d525160208d015251908b01525160608a01525160808901906112a0565b51151560a08701525160c086015251908401525190820152f35b3461024b575f36600319011261024b576109ea6116c5565b5f80546001600160a01b0319811682556001600160a01b03167f8be0079c531659141344cd1fd0a4f28419497f9722a3daafe3b4186f6b6457e08280a3005b833461024b575f36600319011261024b576020905169021e19e0c9bab24000008152f35b82843461024b57602036600319011261024b57813590610a6b611618565b610a736116f0565b335f526001602052805f2092835415610b8e57808401610a9a60ff825460081c16156114a0565b610ac68430337f0000000000000000000000000000000000000000000000000000000000000000611710565b60ff8082541691610ae66103dd610ade888a54611354565b808a5561177a565b610af286600254611354565b600255541691808210156104845780831015610484575060027fbde7f0ba1630d25515c7ab99ba47d5640b7ffb4c673b2a5464ae6791955892989495826107dc938503610b4a575b50015492519283923396846114fd565b610b56865180926112a0565b610b6360208201866112a0565b7fcbbf00b5f55f1857f9362f521999f79036413e420d1b236d6bc143af30db731a863392a287610b3a565b6020606492519162461bcd60e51b835282015260116024820152704e6f206578697374696e67207374616b6560781b6044820152fd5b50503461024b57606036600319011261024b57610bdf61126e565b60249283359060443567ffffffffffffffff9182821161024b573660238301121561024b578186013592831161024b573687848401011161024b57335f5260209486865260ff825f20541615610dab5761271096878611610d74578060018060a01b0380931698895f5260018952610c66855f20988954610c61811515611463565b611341565b049660058101610c77898254611354565b90550161010061ff0019825416179055610c9386600354611354565b6003557f00000000000000000000000000000000000000000000000000000000000000009183519263a9059cbb60e01b5f5261dead8352878b52885f60448180855af160015f5114811615610d55575b84865215610d4157897f7e947095ed288d8885423bdaef4015b7420ffa9b84d62ef67c402e8bc36a8ea98a60608b8f8c80918d828e808051998a98895288015286015201848401375f828201840152601f01601f19168101030190a2005b635274afe760e01b84521690820152879150fd5b6001811516610d6b57813b15153d151616610ce3565b843d5f823e3d90fd5b825162461bcd60e51b81529081018790526012818a015271496e76616c69642070657263656e7461676560701b6044820152606490fd5b815162461bcd60e51b81528088018790526017818a01527f4e6f7420617574686f72697a656420746f20736c6173680000000000000000006044820152606490fd5b833461024b575f36600319011261024b5760209060ff5f5460a01c1690519015158152f35b82843461024b575f36600319011261024b57610e2c6116c5565b5f549160ff8360a01c1615610e725760ff60a01b1983165f5581513381527f5db9ee0a495bf2e6ff9c91a7834c1ba4fdd244a5e8aa4e537bd38aeae4b073aa90602090a1005b9051638dfc202b60e01b8152fd5b833461024b575f36600319011261024b576020905160648152f35b82843461024b575f36600319011261024b57610eb5611618565b610ebd6116f0565b335f526001602052805f20610ed481541515611463565b610ee760ff8483015460081c16156114a0565b610ef033611361565b928315610f6c575060075f914260068201550155610f2f82337f0000000000000000000000000000000000000000000000000000000000000000611647565b519081527ffc30cddea38e2bf4d6ea7d3f9ed3b6ad7f176419f4963bd81318067a4aee73fe60203392a260015f8051602061181f83398151915255005b606490602084519162461bcd60e51b835282015260136024820152724e6f207265776172647320746f20636c61696d60681b6044820152fd5b82843461024b578060031936011261024b57610fbf61126e565b60243580151580910361024b577f07279e33951aa6ce64c70a4d6e3d46ff5995b1d4a523613765b05fd9aed2a40b92602092610ff96116c5565b60018060a01b031694855f528352805f2060ff1981541660ff841617905551908152a2005b82843461024b575f36600319011261024b57611038611618565b335f526001602052805f2091825492611052841515611463565b60038101544210611119575f9161107b6110726005600794015487611320565b95600254611320565b6002553383526001602052828481209181835581600184015581600284015581600384015582015582600582015582600682015501556110dc82337f0000000000000000000000000000000000000000000000000000000000000000611647565b519081527f0f5bb82176feb1b5e747e28471aa92156a04d9f3ab9f45f28e2d704232b93f7560203392a260015f8051602061181f83398151915255005b506020606492519162461bcd60e51b8352820152601260248201527114dd185ad9481cdd1a5b1b081b1bd8dad95960721b6044820152fd5b83833461024b57602036600319011261024b57610120926001600160a01b0361117861126e565b165f526001602052825f209081549360ff60018401549460028501549060038601549086015491600587015494600760068901549801549881519a8b5260208b015289015260608801526111d1608088018383166112a0565b60081c16151560a086015260c0850152830152610100820152f35b833461024b575f36600319011261024b57602090516101f48152f35b833461024b575f36600319011261024b57602090516276a7008152f35b833461024b575f36600319011261024b576020905169152d02c7e14af68000008152f35b833461024b57602036600319011261024b576020906104f861126961126e565b611361565b600435906001600160a01b038216820361024b57565b3461024b575f36600319011261024b5760206040516127108152f35b9060048210156112ad5752565b634e487b7160e01b5f52602160045260245ffd5b3461024b575f36600319011261024b5760206040516301e133808152f35b60048210156112ad5752565b60405190610120820182811067ffffffffffffffff82111761130c57604052565b634e487b7160e01b5f52604160045260245ffd5b9190820391821161132d57565b634e487b7160e01b5f52601160045260245ffd5b8181029291811591840414171561132d57565b9190820180921161132d57565b6001600160a01b03165f90815260016020526040902061137f6112eb565b908054825260018101546020830152600281015491604081019283526003820154606082015260ff60048301546113bb828216608085016112df565b60081c161515918260a0830152600581015460c083015260076006820154918260e0850152015492610100830193845282511590811561145b575b50611453576114059042611320565b9051906107d09182810292818404149015171561132d576114509361144164496cebb8006114396114479461271096611341565b0491516115e0565b90611341565b04905190611354565b90565b505050505f90565b90505f6113f6565b1561146a57565b60405162461bcd60e51b815260206004820152600e60248201526d139bc81cdd185ad948199bdd5b9960921b6044820152606490fd5b156114a757565b60405162461bcd60e51b815260206004820152601660248201527514dd185ad9481a185cc81899595b881cdb185cda195960521b6044820152606490fd5b9060048110156112ad5760ff80198354169116179055565b6115176040929594936060830196835260208301906112a0565b0152565b6001600160a01b03165f9081526001602052604090206115396112eb565b9080548252600181015460208301526002810154906040830191825260038101546060840152600760ff6004830154611577828216608088016112df565b60081c161515918260a0860152600581015460c0860152600681015460e086015201546101008401528251159081156115d8575b506115d257670de0b6b3a7640000916115c76115ce92516117c3565b9051611341565b0490565b50505f90565b90505f6115ab565b6301e1338081106115f25750614e2090565b62ed4e0081106116035750613a9890565b6276a700116116125761271090565b61271090565b5f8051602061181f83398151915260028154146116355760029055565b604051633ee5aeb560e01b8152600490fd5b60405163a9059cbb60e01b5f9081526001600160a01b039384166004526024949094529260209060448180855af160015f51148116156116a6575b836040521561169057505050565b635274afe760e01b835216600482015260249150fd5b60018115166116bc57813b15153d151616611682565b833d5f823e3d90fd5b5f546001600160a01b031633036116d857565b60405163118cdaa760e01b8152336004820152602490fd5b60ff5f5460a01c166116fe57565b60405163d93c066560e01b8152600490fd5b6040516323b872dd60e01b5f9081526001600160a01b03938416600452938316602452604494909452909160209060648180855af160015f5114811615611764575b836040525f6060521561169057505050565b60018115166116bc57813b15153d151616611752565b69152d02c7e14af68000008110156117bd5769021e19e0c9bab24000008110156117b757683635c9adc5dea0000011156117b2575f90565b600190565b50600290565b50600390565b8015611811576729a2241af62c00008082029182040361132d57630784ce00670de0b6b3a76400009104810180911161132d57673782dace9d900000908181111561180c575090565b905090565b50670de0b6b3a76400009056fe9b779b17422d0df92223018b32b4d1fa46e071723d6817e2486d003becc55f00a2646970667358221220a4e014d4f7bad8cc2ed2331af91d324d9ff0b283ac95fa7016f57e081ec5c1fe64736f6c63430008180033","linkReferences":{}},"methodIdentifiers":{"BASIS_POINTS()":"e1f1c4a7","LOCK_12_MONTHS()":"33803860","LOCK_3_MONTHS()":"11149445","LOCK_6_MONTHS()":"c0a9c35d","MAX_TIME_WEIGHT()":"c95ccf54","MULTIPLIER_12_MONTHS()":"88163eed","MULTIPLIER_3_MONTHS()":"50990803","MULTIPLIER_6_MONTHS()":"7f0c57db","SECONDS_PER_YEAR()":"e6a69ab8","SLASH_DOWNTIME()":"14ed9dc2","SLASH_FAILED_TASK()":"3bfebda1","SLASH_MALICIOUS()":"0daa11df","STAKING_APR()":"a6ad8822","TIER_BASIC()":"dcc42fc2","TIER_PREMIUM()":"0ec833c6","TIER_STANDARD()":"691e037a","addToStake(uint256)":"685d7306","ainuToken()":"dd089c1b","authorizedSlashers(address)":"aed2d908","calculatePendingRewards(address)":"097aad10","claimRewards()":"372500ab","compoundRewards()":"c00c9f7f","getEffectiveAPR(uint256)":"c17faf86","getStake(address)":"7a766460","getVotingPower(address)":"bb4d4436","owner()":"8da5cb5b","pause()":"8456cb59","paused()":"5c975abb","renounceOwnership()":"715018a6","setAuthorizedSlasher(address,bool)":"36cb2b82","slash(address,uint256,string)":"678b3ee2","stake(uint256,uint256)":"7b0472f0","stakes(address)":"16934fc4","totalSlashed()":"a201bbdd","totalStaked()":"817b1cd2","transferOwnership(address)":"f2fde38b","unpause()":"3f4ba83a","unstake()":"2def6620"},"id":48}