{"abi":[{"type":"constructor","inputs":[{"name":"initialOwner","type":"address","internalType":"address"}],"stateMutability":"nonpayable"},{"type":"function","name":"BASIS_POINTS","inputs":[],"outputs":[{"name":"","type":"uint256","internalType":"uint256"}],"stateMutability":"view"},{"type":"function","name":"BURN_RATE","inputs":[],"outputs":[{"name":"","type":"uint256","internalType":"uint256"}],"stateMutability":"view"},{"type":"function","name":"DOMAIN_SEPARATOR","inputs":[],"outputs":[{"name":"","type":"bytes32","internalType":"bytes32"}],"stateMutability":"view"},{"type":"function","name":"TOTAL_SUPPLY","inputs":[],"outputs":[{"name":"","type":"uint256","internalType":"uint256"}],"stateMutability":"view"},{"type":"function","name":"allowance","inputs":[{"name":"owner","type":"address","internalType":"address"},{"name":"spender","type":"address","internalType":"address"}],"outputs":[{"name":"","type":"uint256","internalType":"uint256"}],"stateMutability":"view"},{"type":"function","name":"approve","inputs":[{"name":"spender","type":"address","internalType":"address"},{"name":"value","type":"uint256","internalType":"uint256"}],"outputs":[{"name":"","type":"bool","internalType":"bool"}],"stateMutability":"nonpayable"},{"type":"function","name":"balanceOf","inputs":[{"name":"account","type":"address","internalType":"address"}],"outputs":[{"name":"","type":"uint256","internalType":"uint256"}],"stateMutability":"view"},{"type":"function","name":"burn","inputs":[{"name":"amount","type":"uint256","internalType":"uint256"}],"outputs":[],"stateMutability":"nonpayable"},{"type":"function","name":"burnFrom","inputs":[{"name":"account","type":"address","internalType":"address"},{"name":"amount","type":"uint256","internalType":"uint256"}],"outputs":[],"stateMutability":"nonpayable"},{"type":"function","name":"burnOnTransferEnabled","inputs":[],"outputs":[{"name":"","type":"bool","internalType":"bool"}],"stateMutability":"view"},{"type":"function","name":"circulatingSupply","inputs":[],"outputs":[{"name":"","type":"uint256","internalType":"uint256"}],"stateMutability":"view"},{"type":"function","name":"decimals","inputs":[],"outputs":[{"name":"","type":"uint8","internalType":"uint8"}],"stateMutability":"view"},{"type":"function","name":"eip712Domain","inputs":[],"outputs":[{"name":"fields","type":"bytes1","internalType":"bytes1"},{"name":"name","type":"string","internalType":"string"},{"name":"version","type":"string","internalType":"string"},{"name":"chainId","type":"uint256","internalType":"uint256"},{"name":"verifyingContract","type":"address","internalType":"address"},{"name":"salt","type":"bytes32","internalType":"bytes32"},{"name":"extensions","type":"uint256[]","internalType":"uint256[]"}],"stateMutability":"view"},{"type":"function","name":"exemptFromBurn","inputs":[{"name":"","type":"address","internalType":"address"}],"outputs":[{"name":"","type":"bool","internalType":"bool"}],"stateMutability":"view"},{"type":"function","name":"name","inputs":[],"outputs":[{"name":"","type":"string","internalType":"string"}],"stateMutability":"view"},{"type":"function","name":"nonces","inputs":[{"name":"owner","type":"address","internalType":"address"}],"outputs":[{"name":"","type":"uint256","internalType":"uint256"}],"stateMutability":"view"},{"type":"function","name":"owner","inputs":[],"outputs":[{"name":"","type":"address","internalType":"address"}],"stateMutability":"view"},{"type":"function","name":"pause","inputs":[],"outputs":[],"stateMutability":"nonpayable"},{"type":"function","name":"paused","inputs":[],"outputs":[{"name":"","type":"bool","internalType":"bool"}],"stateMutability":"view"},{"type":"function","name":"permit","inputs":[{"name":"owner","type":"address","internalType":"address"},{"name":"spender","type":"address","internalType":"address"},{"name":"value","type":"uint256","internalType":"uint256"},{"name":"deadline","type":"uint256","internalType":"uint256"},{"name":"v","type":"uint8","internalType":"uint8"},{"name":"r","type":"bytes32","internalType":"bytes32"},{"name":"s","type":"bytes32","internalType":"bytes32"}],"outputs":[],"stateMutability":"nonpayable"},{"type":"function","name":"renounceOwnership","inputs":[],"outputs":[],"stateMutability":"nonpayable"},{"type":"function","name":"setExemptFromBurn","inputs":[{"name":"account","type":"address","internalType":"address"},{"name":"exempt","type":"bool","internalType":"bool"}],"outputs":[],"stateMutability":"nonpayable"},{"type":"function","name":"symbol","inputs":[],"outputs":[{"name":"","type":"string","internalType":"string"}],"stateMutability":"view"},{"type":"function","name":"toggleBurnOnTransfer","inputs":[{"name":"enabled","type":"bool","internalType":"bool"}],"outputs":[],"stateMutability":"nonpayable"},{"type":"function","name":"totalBurned","inputs":[],"outputs":[{"name":"","type":"uint256","internalType":"uint256"}],"stateMutability":"view"},{"type":"function","name":"totalBurnedFromTransfers","inputs":[],"outputs":[{"name":"","type":"uint256","internalType":"uint256"}],"stateMutability":"view"},{"type":"function","name":"totalBurnedManually","inputs":[],"outputs":[{"name":"","type":"uint256","internalType":"uint256"}],"stateMutability":"view"},{"type":"function","name":"totalSupply","inputs":[],"outputs":[{"name":"","type":"uint256","internalType":"uint256"}],"stateMutability":"view"},{"type":"function","name":"transfer","inputs":[{"name":"to","type":"address","internalType":"address"},{"name":"value","type":"uint256","internalType":"uint256"}],"outputs":[{"name":"","type":"bool","internalType":"bool"}],"stateMutability":"nonpayable"},{"type":"function","name":"transferFrom","inputs":[{"name":"from","type":"address","internalType":"address"},{"name":"to","type":"address","internalType":"address"},{"name":"value","type":"uint256","internalType":"uint256"}],"outputs":[{"name":"","type":"bool","internalType":"bool"}],"stateMutability":"nonpayable"},{"type":"function","name":"transferOwnership","inputs":[{"name":"newOwner","type":"address","internalType":"address"}],"outputs":[],"stateMutability":"nonpayable"},{"type":"function","name":"unpause","inputs":[],"outputs":[],"stateMutability":"nonpayable"},{"type":"event","name":"Approval","inputs":[{"name":"owner","type":"address","indexed":true,"internalType":"address"},{"name":"spender","type":"address","indexed":true,"internalType":"address"},{"name":"value","type":"uint256","indexed":false,"internalType":"uint256"}],"anonymous":false},{"type":"event","name":"BurnOnTransferToggled","inputs":[{"name":"enabled","type":"bool","indexed":false,"internalType":"bool"}],"anonymous":false},{"type":"event","name":"EIP712DomainChanged","inputs":[],"anonymous":false},{"type":"event","name":"ExemptionUpdated","inputs":[{"name":"account","type":"address","indexed":true,"internalType":"address"},{"name":"exempt","type":"bool","indexed":false,"internalType":"bool"}],"anonymous":false},{"type":"event","name":"OwnershipTransferred","inputs":[{"name":"previousOwner","type":"address","indexed":true,"internalType":"address"},{"name":"newOwner","type":"address","indexed":true,"internalType":"address"}],"anonymous":false},{"type":"event","name":"Paused","inputs":[{"name":"account","type":"address","indexed":false,"internalType":"address"}],"anonymous":false},{"type":"event","name":"TokensBurned","inputs":[{"name":"from","type":"address","indexed":true,"internalType":"address"},{"name":"amount","type":"uint256","indexed":false,"internalType":"uint256"},{"name":"isTransferBurn","type":"bool","indexed":false,"internalType":"bool"}],"anonymous":false},{"type":"event","name":"Transfer","inputs":[{"name":"from","type":"address","indexed":true,"internalType":"address"},{"name":"to","type":"address","indexed":true,"internalType":"address"},{"name":"value","type":"uint256","indexed":false,"internalType":"uint256"}],"anonymous":false},{"type":"event","name":"Unpaused","inputs":[{"name":"account","type":"address","indexed":false,"internalType":"address"}],"anonymous":false},{"type":"error","name":"ECDSAInvalidSignature","inputs":[]},{"type":"error","name":"ECDSAInvalidSignatureLength","inputs":[{"name":"length","type":"uint256","internalType":"uint256"}]},{"type":"error","name":"ECDSAInvalidSignatureS","inputs":[{"name":"s","type":"bytes32","internalType":"bytes32"}]},{"type":"error","name":"ERC20InsufficientAllowance","inputs":[{"name":"spender","type":"address","internalType":"address"},{"name":"allowance","type":"uint256","internalType":"uint256"},{"name":"needed","type":"uint256","internalType":"uint256"}]},{"type":"error","name":"ERC20InsufficientBalance","inputs":[{"name":"sender","type":"address","internalType":"address"},{"name":"balance","type":"uint256","internalType":"uint256"},{"name":"needed","type":"uint256","internalType":"uint256"}]},{"type":"error","name":"ERC20InvalidApprover","inputs":[{"name":"approver","type":"address","internalType":"address"}]},{"type":"error","name":"ERC20InvalidReceiver","inputs":[{"name":"receiver","type":"address","internalType":"address"}]},{"type":"error","name":"ERC20InvalidSender","inputs":[{"name":"sender","type":"address","internalType":"address"}]},{"type":"error","name":"ERC20InvalidSpender","inputs":[{"name":"spender","type":"address","internalType":"address"}]},{"type":"error","name":"ERC2612ExpiredSignature","inputs":[{"name":"deadline","type":"uint256","internalType":"uint256"}]},{"type":"error","name":"ERC2612InvalidSigner","inputs":[{"name":"signer","type":"address","internalType":"address"},{"name":"owner","type":"address","internalType":"address"}]},{"type":"error","name":"EnforcedPause","inputs":[]},{"type":"error","name":"ExpectedPause","inputs":[]},{"type":"error","name":"InvalidAccountNonce","inputs":[{"name":"account","type":"address","internalType":"address"},{"name":"currentNonce","type":"uint256","internalType":"uint256"}]},{"type":"error","name":"InvalidShortString","inputs":[]},{"type":"error","name":"OwnableInvalidOwner","inputs":[{"name":"owner","type":"address","internalType":"address"}]},{"type":"error","name":"OwnableUnauthorizedAccount","inputs":[{"name":"account","type":"address","internalType":"address"}]},{"type":"error","name":"StringTooLong","inputs":[{"name":"str","type":"string","internalType":"string"}]}],"bytecode":{"object":"0x610160346200061557601f6200221b38819003918201601f191683019291906001600160401b03841183851017620003c3578160209284926040968752833981010312620006155751906001600160a01b038216820362000615578051620000678162000619565b6004815260208101916341494e5560e01b938484528151946200008a8662000619565b60048652806020870152825190620000a28262000619565b600482526020820152825195620000b98762000619565b60018752603160f81b60208801528051906001600160401b038211620003c35760035490600182811c921680156200060a575b6020831014620004df5781601f84931162000597575b50602090601f83116001146200050a575f92620004fe575b50508160011b915f199060031b1c1916176003555b8051906001600160401b038211620003c35760045490600182811c92168015620004f3575b6020831014620004df5781601f8493116200046c575b50602090601f8311600114620003e3575f92620003d7575b50508160011b915f199060031b1c1916176004555b620001a28362000635565b93610120948552620001b486620007ed565b93610140948552519020948560e0526020815191012094610100958087524660a05283519060208201927f8b73c3c69bb8fe3d512ecc4cf759cc79239f7b179b0ffacaa9a75d522b39400f84528583015260608201524660808201523060a082015260a0815260c081019181831060018060401b03841117620003c357828552815190206080523060c0526001600160a01b03831615620003ad575050600880546001600160a01b031981166001600160a01b038481169182179384905560ff9392167f8be0079c531659141344cd1fd0a4f28419497f9722a3daafe3b4186f6b6457e05f80a360a01c166200039c576002546b204fce5e3e250261100000009081810180911162000388576002556001600160a01b0382165f81815260208181528582208054850190558551938452919290917fddf252ad1be2c89b69c2b068fc378daa952ba7f163c4a11628f55a4df523b3ef91a36008805460ff60a81b1916600160a81b1790556001600160a01b03165f9081526009602052819020805460ff191660011790555161188093909290846200099b853960805184610f00015260a05184610fcc015260c05184610eca015260e05184610f4f01525183610f75015251826106600152518161068a0152f35b634e487b7160e01b5f52601160045260245ffd5b815163d93c066560e01b8152600490fd5b631e4fbdf760e01b82525f60c490910152602490fd5b634e487b7160e01b5f52604160045260245ffd5b015190505f8062000182565b60045f9081527f8a35acfbc15ff81a39ae7d344fd709f28e8600b4aa8c65c6b64bfe7fe36bd19b9350601f198516905b8181106200045357509084600195949392106200043a575b505050811b0160045562000197565b01515f1960f88460031b161c191690555f80806200042b565b9293602060018192878601518155019501930162000413565b60045f529091507f8a35acfbc15ff81a39ae7d344fd709f28e8600b4aa8c65c6b64bfe7fe36bd19b601f840160051c81019160208510620004d4575b90601f859493920160051c01905b818110620004c557506200016a565b5f8155849350600101620004b6565b9091508190620004a8565b634e487b7160e01b5f52602260045260245ffd5b91607f169162000154565b015190505f806200011a565b60035f90815293507fc2575a0e9e593c00f959f8c92f12db2869c3395a3b0502d05e2516446f71f85b91905b601f19841685106200057b576001945083601f1981161062000562575b505050811b016003556200012f565b01515f1960f88460031b161c191690555f808062000553565b8181015183556020948501946001909301929091019062000536565b60035f529091507fc2575a0e9e593c00f959f8c92f12db2869c3395a3b0502d05e2516446f71f85b601f840160051c81019160208510620005ff575b90601f859493920160051c01905b818110620005f0575062000102565b5f8155849350600101620005e1565b9091508190620005d3565b91607f1691620000ec565b5f80fd5b604081019081106001600160401b03821117620003c357604052565b80516020919082811015620006d1575090601f8251116200067257808251920151908083106200066457501790565b825f19910360031b1b161790565b90604051809263305a27a960e01b82528060048301528251908160248401525f935b828510620006b7575050604492505f838284010152601f80199101168101030190fd5b848101820151868601604401529381019385935062000694565b6001600160401b038111620003c3576005928354926001938481811c91168015620007e2575b83821014620004df57601f8111620007ae575b5081601f84116001146200074857509282939183925f946200073c575b50501b915f199060031b1c191617905560ff90565b015192505f8062000727565b919083601f198116875f52845f20945f905b888383106200079357505050106200077a575b505050811b01905560ff90565b01515f1960f88460031b161c191690555f80806200076d565b8587015188559096019594850194879350908101906200075a565b855f5284601f845f209201871c820191601f8601881c015b828110620007d65750506200070a565b5f8155018590620007c6565b90607f1690620006f7565b805160209081811015620008795750601f8251116200081a57808251920151908083106200066457501790565b90604051809263305a27a960e01b82528060048301528251908160248401525f935b8285106200085f575050604492505f838284010152601f80199101168101030190fd5b84810182015186860160440152938101938593506200083c565b906001600160401b038211620003c357600654926001938481811c911680156200098f575b83821014620004df57601f811162000958575b5081601f8411600114620008f057509282939183925f94620008e4575b50501b915f199060031b1c19161760065560ff90565b015192505f80620008ce565b919083601f19811660065f52845f20945f905b888383106200093d575050501062000924575b505050811b0160065560ff90565b01515f1960f88460031b161c191690555f808062000916565b85870151885590960195948501948793509081019062000903565b60065f5284601f845f20920160051c820191601f860160051c015b82811062000983575050620008b1565b5f815501859062000973565b90607f16906200089e56fe6080604090808252600480361015610015575f80fd5b5f3560e01c91826306fdde0314610bad57508163095ea7b314610b845781631282b69c14610b6657816318160ddd14610b4857816323b872dd14610b0c578163313ce56714610af15781633644e51514610ad55781633941d34f14610ab75781633f4ba83a14610a4857816342966c68146109fb57816349b3d4c2146109d55781635c975abb146109af5781636257192b146109325781636e637cc5146108f657816370a08231146108c0578163715018a61461086557816379cc6790146107fd5781637ecebe00146107c65781638456cb591461076757816384b0196e146106495781638da5cb5b14610621578163902d55a5146105fb5781639358928b146105a657816395d89b41146104ba578163a9059cbb1461048a578163c85280311461041e578163d505accf146102bd578163d89135cd14610293578163dd62ed3e1461024a578163e1f1c4a71461022e578163f2fde38b1461019f575063f846a88514610180575f80fd5b3461019b575f36600319011261019b57602090516101f48152f35b5f80fd5b90503461019b57602036600319011261019b576101ba610cba565b906101c3610ff2565b6001600160a01b03918216928315610218575050600854826bffffffffffffffffffffffff60a01b821617600855167f8be0079c531659141344cd1fd0a4f28419497f9722a3daafe3b4186f6b6457e05f80a3005b905f6024925191631e4fbdf760e01b8352820152fd5b823461019b575f36600319011261019b57602090516127108152f35b823461019b578060031936011261019b57602090610266610cba565b61026e610cd0565b9060018060a01b038091165f5260018452825f2091165f528252805f20549051908152f35b823461019b575f36600319011261019b576020906102b6600a54600b5490610d70565b9051908152f35b90503461019b5760e036600319011261019b576102d8610cba565b6102e0610cd0565b906044359260643560843560ff8116810361019b578142116104075760018060a01b039081851692835f526007602052885f209081549160018301905589519060208201927f6e71edae12b1b97f4d1f60370fef10105fa2faae0126114a169c64845d6126c98452868c840152858a1660608401528a608084015260a083015260c082015260c0815260e0810181811067ffffffffffffffff8211176103f4578a525190206103c4916103bb91610395610ec7565b908b519161190160f01b83526002830152602282015260c43591604260a43592206114cb565b90929192611558565b168181036103d9576103d786868661101e565b005b86516325c0072360e11b815292830152602482015260449150fd5b604187634e487b7160e01b5f525260245ffd5b865163313c898160e11b8152808401839052602490fd5b90503461019b57602036600319011261019b57359081151580920361019b577fcf77b1a7d6ba10eb16b4956d77617283e9b4ee5ae43404e01a70d0399216611a9160209161046a610ff2565b6008805460ff60a81b191660a884901b60ff60a81b1617905551908152a1005b823461019b578060031936011261019b576020906104b36104a9610cba565b6024359033610e6b565b5160018152f35b90503461019b575f36600319011261019b57815191825f83546104dc81610ce6565b90818452602095600191876001821691825f1461057f575050600114610523575b50505061051f9291610510910385610d4e565b51928284938452830190610c7c565b0390f35b5f90815286935091907f8a35acfbc15ff81a39ae7d344fd709f28e8600b4aa8c65c6b64bfe7fe36bd19b5b828410610567575050508201018161051061051f6104fd565b8054848a01860152889550879490930192810161054e565b60ff19168782015293151560051b86019093019350849250610510915061051f90506104fd565b823461019b575f36600319011261019b576105c6600a54600b5490610d70565b906b204fce5e3e250261100000009182039182116105e8576020925051908152f35b601183634e487b7160e01b5f525260245ffd5b823461019b575f36600319011261019b57602090516b204fce5e3e250261100000008152f35b823461019b575f36600319011261019b5760085490516001600160a01b039091168152602090f35b90503461019b575f36600319011261019b576106847f000000000000000000000000000000000000000000000000000000000000000061130d565b916106ae7f000000000000000000000000000000000000000000000000000000000000000061140e565b815191602091602084019484861067ffffffffffffffff871117610754575061070982602092876106fc99989795525f85528151988998600f60f81b8a5260e0868b015260e08a0190610c7c565b9188830390890152610c7c565b914660608701523060808701525f60a087015285830360c087015251918281520192915f5b82811061073d57505050500390f35b83518552869550938101939281019260010161072e565b604190634e487b7160e01b5f525260245ffd5b823461019b575f36600319011261019b5760207f62e78cea01bee320cd4e420270b5ea74000d11b0c9f74754ebdbfc544b05a258916107a4610ff2565b6107ac6112ec565b6008805460ff60a01b1916600160a01b17905551338152a1005b823461019b57602036600319011261019b576020906001600160a01b036107eb610cba565b165f5260078252805f20549051908152f35b823461019b578060031936011261019b575f8051602061180b833981519152610824610cba565b9160243592610834843383610d9e565b61083e84826112cb565b61084a84600b54610d70565b600b5581519384525f60208501526001600160a01b031692a2005b3461019b575f36600319011261019b5761087d610ff2565b600880546001600160a01b031981169091555f906001600160a01b03167f8be0079c531659141344cd1fd0a4f28419497f9722a3daafe3b4186f6b6457e08280a3005b823461019b57602036600319011261019b576020906001600160a01b036108e5610cba565b165f525f8252805f20549051908152f35b823461019b57602036600319011261019b576020906001600160a01b0361091b610cba565b165f526009825260ff815f20541690519015158152f35b823461019b578060031936011261019b5761094b610cba565b6024359081151580920361019b577f6c3adfee332544f29232690459f4fe23a1c9573efbaac65c9fc033355fb413f091602091610986610ff2565b6001600160a01b03165f81815260098452859020805460ff191660ff84161790559351908152a2005b823461019b575f36600319011261019b5760209060ff60085460a01c1690519015158152f35b823461019b575f36600319011261019b5760209060ff60085460a81c1690519015158152f35b90503461019b57602036600319011261019b575f8051602061180b833981519152903591610a2983336112cb565b610a3583600b54610d70565b600b5580519283525f60208401523392a2005b823461019b575f36600319011261019b57610a61610ff2565b6008549160ff8360a01c1615610aa95760ff60a01b19831660085581513381527f5db9ee0a495bf2e6ff9c91a7834c1ba4fdd244a5e8aa4e537bd38aeae4b073aa90602090a1005b9051638dfc202b60e01b8152fd5b823461019b575f36600319011261019b57602090600a549051908152f35b823461019b575f36600319011261019b576020906102b6610ec7565b823461019b575f36600319011261019b576020905160128152f35b823461019b57606036600319011261019b576020906104b3610b2c610cba565b610b34610cd0565b60443591610b43833383610d9e565b610e6b565b823461019b575f36600319011261019b576020906002549051908152f35b823461019b575f36600319011261019b57602090600b549051908152f35b823461019b578060031936011261019b576020906104b3610ba3610cba565b602435903361101e565b833461019b575f36600319011261019b5760035490825f610bcd84610ce6565b808352602094600190866001821691825f14610c5a575050600114610bff575b505061051f9291610510910385610d4e565b9085925060035f527fc2575a0e9e593c00f959f8c92f12db2869c3395a3b0502d05e2516446f71f85b915f925b828410610c425750505082010181610510610bed565b8054848a018601528895508794909301928101610c2c565b60ff19168682015292151560051b850190920192508391506105109050610bed565b91908251928382525f5b848110610ca6575050825f602080949584010152601f8019910116010190565b602081830181015184830182015201610c86565b600435906001600160a01b038216820361019b57565b602435906001600160a01b038216820361019b57565b90600182811c92168015610d14575b6020831014610d0057565b634e487b7160e01b5f52602260045260245ffd5b91607f1691610cf5565b6040810190811067ffffffffffffffff821117610d3a57604052565b634e487b7160e01b5f52604160045260245ffd5b90601f8019910116810190811067ffffffffffffffff821117610d3a57604052565b91908201809211610d7d57565b634e487b7160e01b5f52601160045260245ffd5b91908203918211610d7d57565b919060018060a01b0380931692835f526001602052604093845f2091831691825f52602052845f2054925f198410610dd9575b505050505050565b848410610e3b57508015610e24578115610e0d575f526001602052835f20905f5260205203905f20555f8080808080610dd1565b8451634a1406b160e11b81525f6004820152602490fd5b845163e602df0560e01b81525f6004820152602490fd5b8551637dc7a0d960e11b81526001600160a01b039190911660048201526024810184905260448101859052606490fd5b91906001600160a01b0380841615610eaf57811615610e9757610e9592610e906112ec565b6111bb565b565b60405163ec442f0560e01b81525f6004820152602490fd5b604051634b637e8f60e11b81525f6004820152602490fd5b307f00000000000000000000000000000000000000000000000000000000000000006001600160a01b03161480610fc9575b15610f22577f000000000000000000000000000000000000000000000000000000000000000090565b60405160208101907f8b73c3c69bb8fe3d512ecc4cf759cc79239f7b179b0ffacaa9a75d522b39400f82527f000000000000000000000000000000000000000000000000000000000000000060408201527f000000000000000000000000000000000000000000000000000000000000000060608201524660808201523060a082015260a0815260c0810181811067ffffffffffffffff821117610d3a5760405251902090565b507f00000000000000000000000000000000000000000000000000000000000000004614610ef9565b6008546001600160a01b0316330361100657565b60405163118cdaa760e01b8152336004820152602490fd5b6001600160a01b03908116918215611093571691821561107b5760207f8c5be1e5ebec7d5bd14f71427d1e84f3dd0314c0f7b2291e5b200ac8c7c3b92591835f526001825260405f20855f5282528060405f2055604051908152a3565b604051634a1406b160e11b81525f6004820152602490fd5b60405163e602df0560e01b81525f6004820152602490fd5b6001600160a01b0381169190821580156111b3575b80156111ac575b6111595760ff60085460a81c16158015611196575b8015611163575b611159576101f492838302938385041483151715610d7d5761110d612710610e9595048094610d91565b928061111b575b5050611684565b6040816111365f8051602061180b83398151915293866115db565b61114281600a54610d70565b600a55815190815260016020820152a25f80611114565b610e959250611684565b505f805260096020527fec8156718a8372b1db44bb411437d0870f3e3790d4a08526d024ce1b0b668f6b5460ff166110e3565b50825f52600960205260ff60405f2054166110dc565b505f6110c7565b5060016110c0565b6001600160a01b0380821693929190841580156112c1575b80156112b4575b6112a95760ff60085460a81c1615908115611291575b8115611278575b5061126e576101f493848402948486041484151715610d7d57611222612710610e9596048095610d91565b9380611230575b505061173a565b60408161124b5f8051602061180b83398151915293866115db565b61125781600a54610d70565b600a55815190815260016020820152a25f80611229565b610e95935061173a565b905082165f52600960205260ff60405f2054165f6111f7565b9050845f52600960205260ff60405f205416906111f0565b50610e95935061173a565b5061dead818416146111da565b50808316156111d3565b906001600160a01b03821615610eaf57610e95916112e76112ec565b6110ab565b60ff60085460a01c166112fb57565b60405163d93c066560e01b8152600490fd5b60ff811461134b5760ff811690601f8211611339576040519161132f83610d1e565b8252602082015290565b604051632cd44ac360e21b8152600490fd5b50604051600554815f61135d83610ce6565b808352926020906001908181169081156113ea575060011461138b575b505061138892500382610d4e565b90565b91509260055f527f036b6384b5eca791c62761152d0c79bb0604c104a5fb6f4eb0703f3154bb3db0935f925b8284106113d257506113889450505081016020015f8061137a565b855487850183015294850194869450928101926113b7565b9150506020925061138894915060ff191682840152151560051b8201015f8061137a565b60ff81146114305760ff811690601f8211611339576040519161132f83610d1e565b50604051600654815f61144283610ce6565b808352926020906001908181169081156113ea575060011461146c57505061138892500382610d4e565b91509260065f527ff652222313e28459528d920b65115c16c04f3efc82aaedc97be59f3f377c0d3f935f925b8284106114b357506113889450505081016020015f8061137a565b85548785018301529485019486945092810192611498565b91907f7fffffffffffffffffffffffffffffff5d576e7357a4501ddfe92f46681b20a0841161154d579160209360809260ff5f9560405194855216868401526040830152606082015282805260015afa15611542575f516001600160a01b0381161561153857905f905f90565b505f906001905f90565b6040513d5f823e3d90fd5b5050505f9160039190565b60048110156115c7578061156a575050565b600181036115845760405163f645eedf60e01b8152600490fd5b600281036115a55760405163fce698f760e01b815260048101839052602490fd5b6003146115af5750565b602490604051906335e2f38360e21b82526004820152fd5b634e487b7160e01b5f52602160045260245ffd5b6001600160a01b038116908161162957506115f882600254610d70565b6002555b5f8051602061182b833981519152602061dead93845f525f825260405f20818154019055604051908152a3565b815f525f60205260405f20549083821061165257508290825f525f6020520360405f20556115fc565b60405163391434e360e21b81526001600160a01b03919091166004820152602481019190915260448101839052606490fd5b9091906001600160a01b03811690816116cc57505f8051602061182b8339815191526020846116b75f9596600254610d70565b6002555b8060025403600255604051908152a3565b92815f525f60205260405f20549381851061170857506020815f8051602061182b833981519152925f95968587528684520360408620556116bb565b60405163391434e360e21b81526001600160a01b03919091166004820152602481018590526044810191909152606490fd5b6001600160a01b038082169290918361179e57505f8051602061182b8339815191529160209161176c86600254610d70565b6002555b1693846117895780600254036002555b604051908152a3565b845f525f825260405f20818154019055611780565b835f525f60205260405f2054908582106117d8575091602091855f8051602061182b83398151915294865f525f85520360405f2055611770565b60405163391434e360e21b81526001600160a01b03919091166004820152602481019190915260448101859052606490fdfe7b10bf146cdc5eae8410993ac44c741ece7649a7a07abf29f738ec0729bc69c6ddf252ad1be2c89b69c2b068fc378daa952ba7f163c4a11628f55a4df523b3efa2646970667358221220f5ea72555357ea843590f0b97c297bcedf90d30121a03528f4be40844e6d2f5864736f6c63430008180033","linkReferences":{}},"methodIdentifiers":{"BASIS_POINTS()":"e1f1c4a7","BURN_RATE()":"f846a885","DOMAIN_SEPARATOR()":"3644e515","TOTAL_SUPPLY()":"902d55a5","allowance(address,address)":"dd62ed3e","approve(address,uint256)":"095ea7b3","balanceOf(address)":"70a08231","burn(uint256)":"42966c68","burnFrom(address,uint256)":"79cc6790","burnOnTransferEnabled()":"49b3d4c2","circulatingSupply()":"9358928b","decimals()":"313ce567","eip712Domain()":"84b0196e","exemptFromBurn(address)":"6e637cc5","name()":"06fdde03","nonces(address)":"7ecebe00","owner()":"8da5cb5b","pause()":"8456cb59","paused()":"5c975abb","permit(address,address,uint256,uint256,uint8,bytes32,bytes32)":"d505accf","renounceOwnership()":"715018a6","setExemptFromBurn(address,bool)":"6257192b","symbol()":"95d89b41","toggleBurnOnTransfer(bool)":"c8528031","totalBurned()":"d89135cd","totalBurnedFromTransfers()":"3941d34f","totalBurnedManually()":"1282b69c","totalSupply()":"18160ddd","transfer(address,uint256)":"a9059cbb","transferFrom(address,address,uint256)":"23b872dd","transferOwnership(address)":"f2fde38b","unpause()":"3f4ba83a"},"id":49}