{"abi":[{"type":"constructor","inputs":[{"name":"_ainuToken","type":"address","internalType":"address"},{"name":"initialOwner","type":"address","internalType":"address"}],"stateMutability":"nonpayable"},{"type":"function","name":"AGENT_SHARE","inputs":[],"outputs":[{"name":"","type":"uint256","internalType":"uint256"}],"stateMutability":"view"},{"type":"function","name":"BASIS_POINTS","inputs":[],"outputs":[{"name":"","type":"uint256","internalType":"uint256"}],"stateMutability":"view"},{"type":"function","name":"BURN_SHARE","inputs":[],"outputs":[{"name":"","type":"uint256","internalType":"uint256"}],"stateMutability":"view"},{"type":"function","name":"NODE_SHARE","inputs":[],"outputs":[{"name":"","type":"uint256","internalType":"uint256"}],"stateMutability":"view"},{"type":"function","name":"PROTOCOL_SHARE","inputs":[],"outputs":[{"name":"","type":"uint256","internalType":"uint256"}],"stateMutability":"view"},{"type":"function","name":"ainuToken","inputs":[],"outputs":[{"name":"","type":"address","internalType":"contract IERC20"}],"stateMutability":"view"},{"type":"function","name":"authorizedCollectors","inputs":[{"name":"","type":"address","internalType":"address"}],"outputs":[{"name":"","type":"bool","internalType":"bool"}],"stateMutability":"view"},{"type":"function","name":"buybackAndBurn","inputs":[{"name":"amount","type":"uint256","internalType":"uint256"}],"outputs":[],"stateMutability":"nonpayable"},{"type":"function","name":"claimAgentRewards","inputs":[],"outputs":[],"stateMutability":"nonpayable"},{"type":"function","name":"claimNodeRewards","inputs":[],"outputs":[],"stateMutability":"nonpayable"},{"type":"function","name":"collectTaskFee","inputs":[{"name":"amount","type":"uint256","internalType":"uint256"},{"name":"agent","type":"address","internalType":"address"},{"name":"node","type":"address","internalType":"address"}],"outputs":[],"stateMutability":"nonpayable"},{"type":"function","name":"createGrant","inputs":[{"name":"recipient","type":"address","internalType":"address"},{"name":"amount","type":"uint256","internalType":"uint256"},{"name":"description","type":"string","internalType":"string"}],"outputs":[{"name":"grantId","type":"uint256","internalType":"uint256"}],"stateMutability":"nonpayable"},{"type":"function","name":"emergencyWithdraw","inputs":[{"name":"token","type":"address","internalType":"address"},{"name":"amount","type":"uint256","internalType":"uint256"}],"outputs":[],"stateMutability":"nonpayable"},{"type":"function","name":"executeGrant","inputs":[{"name":"grantId","type":"uint256","internalType":"uint256"}],"outputs":[],"stateMutability":"nonpayable"},{"type":"function","name":"getPendingAgentRewards","inputs":[{"name":"agent","type":"address","internalType":"address"}],"outputs":[{"name":"","type":"uint256","internalType":"uint256"}],"stateMutability":"view"},{"type":"function","name":"getPendingNodeRewards","inputs":[{"name":"node","type":"address","internalType":"address"}],"outputs":[{"name":"","type":"uint256","internalType":"uint256"}],"stateMutability":"view"},{"type":"function","name":"getTreasuryBalance","inputs":[],"outputs":[{"name":"","type":"uint256","internalType":"uint256"}],"stateMutability":"view"},{"type":"function","name":"grants","inputs":[{"name":"","type":"uint256","internalType":"uint256"}],"outputs":[{"name":"recipient","type":"address","internalType":"address"},{"name":"amount","type":"uint256","internalType":"uint256"},{"name":"description","type":"string","internalType":"string"},{"name":"executed","type":"bool","internalType":"bool"},{"name":"timestamp","type":"uint256","internalType":"uint256"}],"stateMutability":"view"},{"type":"function","name":"nextGrantId","inputs":[],"outputs":[{"name":"","type":"uint256","internalType":"uint256"}],"stateMutability":"view"},{"type":"function","name":"owner","inputs":[],"outputs":[{"name":"","type":"address","internalType":"address"}],"stateMutability":"view"},{"type":"function","name":"pendingAgentRewards","inputs":[{"name":"","type":"address","internalType":"address"}],"outputs":[{"name":"","type":"uint256","internalType":"uint256"}],"stateMutability":"view"},{"type":"function","name":"pendingNodeRewards","inputs":[{"name":"","type":"address","internalType":"address"}],"outputs":[{"name":"","type":"uint256","internalType":"uint256"}],"stateMutability":"view"},{"type":"function","name":"renounceOwnership","inputs":[],"outputs":[],"stateMutability":"nonpayable"},{"type":"function","name":"setAuthorizedCollector","inputs":[{"name":"collector","type":"address","internalType":"address"},{"name":"authorized","type":"bool","internalType":"bool"}],"outputs":[],"stateMutability":"nonpayable"},{"type":"function","name":"totalAgentRewards","inputs":[],"outputs":[{"name":"","type":"uint256","internalType":"uint256"}],"stateMutability":"view"},{"type":"function","name":"totalBurned","inputs":[],"outputs":[{"name":"","type":"uint256","internalType":"uint256"}],"stateMutability":"view"},{"type":"function","name":"totalNodeRewards","inputs":[],"outputs":[{"name":"","type":"uint256","internalType":"uint256"}],"stateMutability":"view"},{"type":"function","name":"totalRevenue","inputs":[],"outputs":[{"name":"","type":"uint256","internalType":"uint256"}],"stateMutability":"view"},{"type":"function","name":"transferOwnership","inputs":[{"name":"newOwner","type":"address","internalType":"address"}],"outputs":[],"stateMutability":"nonpayable"},{"type":"event","name":"AgentRewardClaimed","inputs":[{"name":"agent","type":"address","indexed":true,"internalType":"address"},{"name":"amount","type":"uint256","indexed":false,"internalType":"uint256"}],"anonymous":false},{"type":"event","name":"CollectorAuthorized","inputs":[{"name":"collector","type":"address","indexed":true,"internalType":"address"},{"name":"authorized","type":"bool","indexed":false,"internalType":"bool"}],"anonymous":false},{"type":"event","name":"GrantCreated","inputs":[{"name":"grantId","type":"uint256","indexed":true,"internalType":"uint256"},{"name":"recipient","type":"address","indexed":true,"internalType":"address"},{"name":"amount","type":"uint256","indexed":false,"internalType":"uint256"}],"anonymous":false},{"type":"event","name":"GrantExecuted","inputs":[{"name":"grantId","type":"uint256","indexed":true,"internalType":"uint256"}],"anonymous":false},{"type":"event","name":"NodeRewardClaimed","inputs":[{"name":"node","type":"address","indexed":true,"internalType":"address"},{"name":"amount","type":"uint256","indexed":false,"internalType":"uint256"}],"anonymous":false},{"type":"event","name":"OwnershipTransferred","inputs":[{"name":"previousOwner","type":"address","indexed":true,"internalType":"address"},{"name":"newOwner","type":"address","indexed":true,"internalType":"address"}],"anonymous":false},{"type":"event","name":"RevenueCollected","inputs":[{"name":"amount","type":"uint256","indexed":false,"internalType":"uint256"},{"name":"from","type":"address","indexed":true,"internalType":"address"}],"anonymous":false},{"type":"event","name":"TokensBurned","inputs":[{"name":"amount","type":"uint256","indexed":false,"internalType":"uint256"}],"anonymous":false},{"type":"error","name":"OwnableInvalidOwner","inputs":[{"name":"owner","type":"address","internalType":"address"}]},{"type":"error","name":"OwnableUnauthorizedAccount","inputs":[{"name":"account","type":"address","internalType":"address"}]},{"type":"error","name":"ReentrancyGuardReentrantCall","inputs":[]},{"type":"error","name":"SafeERC20FailedOperation","inputs":[{"name":"token","type":"address","internalType":"address"}]}],"bytecode":{"object":"0x60a03461012457601f61146938819003918201601f19168301916001600160401b038311848410176101285780849260409485528339810103126101245760206100488261013c565b916001600160a01b0391829161005e910161013c565b1691821561010c575f80546001600160a01b03198116851782556040519491908416907f8be0079c531659141344cd1fd0a4f28419497f9722a3daafe3b4186f6b6457e09080a360017f9b779b17422d0df92223018b32b4d1fa46e071723d6817e2486d003becc55f005516608052611318908161015182396080518181816105cd0152818161069801528181610726015281816108d101528181610bbf01528181610cd20152610ea50152f35b604051631e4fbdf760e01b81525f6004820152602490fd5b5f80fd5b634e487b7160e01b5f52604160045260245ffd5b51906001600160a01b03821682036101245756fe6080806040526004361015610012575f80fd5b5f3560e01c9081630c0debea14610ef2575080630dcaa63e14610e4d5780632ffb61fb14610e315780633622cc2414610dab5780634641287814610d6e5780634a13c7a114610d5257806351adc761146107e45780635967145414610d355780635ced448c14610c8d5780636abe8afc14610b5a5780637030110214610867578063715018a614610810578063798c3cbf1461023e5780638da5cb5b146107e957806393b998fb146107e457806395ccea67146107a65780639b5655dc146106fb578063a58b603b14610653578063adbba6941461015b578063bb8b3ea914610636578063bf2d9e0b14610619578063d89135cd146105fc578063dd089c1b146105b8578063de2fdf7714610292578063e1f1c4a714610276578063ebb193731461023e578063ecc9724514610221578063f2fde38b146101975763f8f969501461015b575f80fd5b34610193576020366003190112610193576001600160a01b0361017c6110aa565b165f526006602052602060405f2054604051908152f35b5f80fd5b34610193576020366003190112610193576101b06110aa565b6101b861117b565b6001600160a01b03908116908115610209575f54826bffffffffffffffffffffffff60a01b8216175f55167f8be0079c531659141344cd1fd0a4f28419497f9722a3daafe3b4186f6b6457e05f80a3005b604051631e4fbdf760e01b81525f6004820152602490fd5b34610193575f366003190112610193576020600354604051908152f35b34610193576020366003190112610193576001600160a01b0361025f6110aa565b165f526005602052602060405f2054604051908152f35b34610193575f3660031901126101935760206040516127108152f35b34610193576060366003190112610193576102ab6110aa565b6024906044359167ffffffffffffffff9182841161019357366023850112156101935783600401358381116101935736838287010111610193576102ed61117b565b6001600160a01b0394828616156105805761030a843515156110dc565b600954945f19861461056d57600186016009556040519160a083018381108382111761055a5760405287851683525f6020808501958835875280896040519561035c85601f19601f8601160188611074565b828752018386013783010152604083019081525f6060840152426080840152865f52600860205260405f2093888451166bffffffffffffffffffffffff60a01b865416178555516001850155518051918211610547576103bf600285015461103c565b601f8111610503575b509160209793918795938990601f831160011461046c578a9593837f0522ba57bb38d1384cae5e8e838a55567db2cab52b952427fdb3c7be1e8d70b89896946004946080945f92610461575b50508160011b915f199060031b1c19161760028501555b61044a60608201511515600386019060ff801983541691151516179055565b0151910155604051953586521693a3604051908152f35b015190508e80610414565b90600285015f528a5f20915f5b601f19851681106104e95750936001846004946080948f9a987f0522ba57bb38d1384cae5e8e838a55567db2cab52b952427fdb3c7be1e8d70b89c9a98601f198116106104d1575b505050811b01600285015561042b565b01515f1960f88460031b161c191690558e80806104c1565b8183015184558b9950600190930192918c01918c01610479565b600285015f5260205f20601f840160051c810160208510610540575b601f830160051c820181106105355750506103c8565b5f815560010161051f565b508061051f565b85634e487b7160e01b5f5260416004525ffd5b86634e487b7160e01b5f5260416004525ffd5b84634e487b7160e01b5f5260116004525ffd5b60405162461bcd60e51b81526020600482015260118186015270125b9d985b1a59081c9958da5c1a595b9d607a1b6044820152606490fd5b34610193575f366003190112610193576040517f00000000000000000000000000000000000000000000000000000000000000006001600160a01b03168152602090f35b34610193575f366003190112610193576020600454604051908152f35b34610193575f366003190112610193576020600154604051908152f35b34610193575f366003190112610193576020600954604051908152f35b34610193575f3660031901126101935761066b6111a6565b335f52600660205260405f205461068381151561113a565b335f5260066020525f60408120556106bc81337f0000000000000000000000000000000000000000000000000000000000000000611244565b6040519081527f22db04f3a691162dc3b551f6fbd238fe1fbb1e2d869178b55e49579c256465c160203392a260015f805160206112c383398151915255005b34610193575f366003190112610193576040516370a0823160e01b81523060048201526020816024817f00000000000000000000000000000000000000000000000000000000000000006001600160a01b03165afa801561079b575f90610768575b602090604051908152f35b506020813d602011610793575b8161078260209383611074565b81010312610193576020905161075d565b3d9150610775565b6040513d5f823e3d90fd5b34610193576040366003190112610193576107e26107c26110aa565b6107ca61117b565b5f54602435916001600160a01b039182169116611244565b005b6110c0565b34610193575f366003190112610193575f546040516001600160a01b039091168152602090f35b34610193575f3660031901126101935761082861117b565b5f80546001600160a01b0319811682556001600160a01b03167f8be0079c531659141344cd1fd0a4f28419497f9722a3daafe3b4186f6b6457e08280a3005b34610193576060366003190112610193576001600160a01b03602480358281169260043592918490036101935760443591818316809303610193576108aa6111a6565b335f526020926007845260ff60405f20541615610b165785151580610b0d575b15610ad5577f000000000000000000000000000000000000000000000000000000000000000092604051906323b872dd60e01b5f523360045230845286604452855f60648180895af160015f5114811615610ab6575b826040525f60605215610a9f57505061093b85600154611119565b600155611b589081860286159287820414831715610a8c57612710809104926107d08089029089820414821715610a7957829004946101f491828a02928a8404141715610a6657507fc1d33b958aa442bfd940e55e7eb9df95ad2c95b6cd085cbf74516f886aa9276d9798936109f5938896936109ea9304955f526005875260405f206109c9838254611119565b90555f526006865260405f206109e0848254611119565b9055600254611119565b600255600354611119565b60035580610a1d575b5050506040519283523392a260015f805160206112c383398151915255005b610a48817f6ef4855b666dcc7884561072e4358b28dfe01feb1b7f4dcebc00e62d50394ac7946111d5565b610a5481600454611119565b600455604051908152a18381816109fe565b634e487b7160e01b5f9081526011600452fd5b85634e487b7160e01b5f5260116004525ffd5b83634e487b7160e01b5f5260116004525ffd5b635274afe760e01b82529390931660048401525090fd5b6001811516610acc57853b15153d151616610920565b823d5f823e3d90fd5b60405162461bcd60e51b81526004810185905260118184015270496e76616c69642061646472657373657360781b6044820152606490fd5b508015156108ca565b60405162461bcd60e51b8152600481018590526018818401527f4e6f7420617574686f72697a656420636f6c6c6563746f7200000000000000006044820152606490fd5b3461019357602036600319011261019357600435610b7661117b565b610b7e6111a6565b805f52600860205260405f206003810190815460ff8116610c4f5781546001600160a01b0316918215610c1a57610be3936001809360ff19161790550154907f0000000000000000000000000000000000000000000000000000000000000000611244565b7fc1854ff03b929eeb281a706803fb00f946bb9a71182c6df0be8b4e2f13fef6bd5f80a260015f805160206112c383398151915255005b60405162461bcd60e51b815260206004820152600d60248201526c125b9d985b1a590819dc985b9d609a1b6044820152606490fd5b60405162461bcd60e51b815260206004820152601660248201527511dc985b9d08185b1c9958591e48195e1958dd5d195960521b6044820152606490fd5b34610193575f36600319011261019357610ca56111a6565b335f52600560205260405f2054610cbd81151561113a565b335f5260056020525f6040812055610cf681337f0000000000000000000000000000000000000000000000000000000000000000611244565b6040519081527f916fdf5c43e4edde8ba8780a69396ecb9fc5dbcac1c3e31b00c56a974d060c7860203392a260015f805160206112c383398151915255005b34610193575f366003190112610193576020600254604051908152f35b34610193575f366003190112610193576020604051611b588152f35b34610193576020366003190112610193576001600160a01b03610d8f6110aa565b165f526007602052602060ff60405f2054166040519015158152f35b3461019357604036600319011261019357610dc46110aa565b6024359081151590818303610193577f41d74103d46ef82053a81f2586320f276ea86c84fc3f4781d1d6b9d05917481f91610e28602092610e0361117b565b60018060a01b031694855f526007845260405f209060ff801983541691151516179055565b604051908152a2005b34610193575f3660031901126101935760206040516107d08152f35b34610193576020366003190112610193577f6ef4855b666dcc7884561072e4358b28dfe01feb1b7f4dcebc00e62d50394ac76020600435610e8c61117b565b610e946111a6565b610e9f8115156110dc565b610ec9817f00000000000000000000000000000000000000000000000000000000000000006111d5565b610ed581600454611119565b600455604051908152a160015f805160206112c383398151915255005b346101935760209081600319360112610193576004355f526008825260405f209160018060a01b03835416926001916001820154928460028401915f90835493610f3b8561103c565b94858552866001821691825f1461101a575050600114610fde575b5050610f6a92509694969392930385611074565b600460ff6003830154169101549060405195869485528385015260a060408501528451928360a08601525f955b848710610fc557505060c094505f858486010152151560608401526080830152601f80199101168101030190f35b86810182015188880160c0015295810195879550610f97565b8592505f52815f20905f915b858310611002575050610f6a93508201018880610f56565b8054838b018501528994508693909201918101610fea565b9250935050610f6a94915060ff191682840152151560051b8201018880610f56565b90600182811c9216801561106a575b602083101461105657565b634e487b7160e01b5f52602260045260245ffd5b91607f169161104b565b90601f8019910116810190811067ffffffffffffffff82111761109657604052565b634e487b7160e01b5f52604160045260245ffd5b600435906001600160a01b038216820361019357565b34610193575f3660031901126101935760206040516101f48152f35b156110e357565b60405162461bcd60e51b815260206004820152600e60248201526d125b9d985b1a5908185b5bdd5b9d60921b6044820152606490fd5b9190820180921161112657565b634e487b7160e01b5f52601160045260245ffd5b1561114157565b60405162461bcd60e51b81526020600482015260126024820152714e6f2070656e64696e67207265776172647360701b6044820152606490fd5b5f546001600160a01b0316330361118e57565b60405163118cdaa760e01b8152336004820152602490fd5b5f805160206112c383398151915260028154146111c35760029055565b604051633ee5aeb560e01b8152600490fd5b6040519163a9059cbb60e01b5f5261dead60045260245260205f60448180855af160015f511481161561122e575b8260405215611210575050565b635274afe760e01b82526001600160a01b0316600482015260249150fd5b6001811516610acc57813b15153d151616611203565b60405163a9059cbb60e01b5f9081526001600160a01b039384166004526024949094529260209060448180855af160015f51148116156112a3575b836040521561128d57505050565b635274afe760e01b835216600482015260249150fd5b60018115166112b957813b15153d15161661127f565b833d5f823e3d90fdfe9b779b17422d0df92223018b32b4d1fa46e071723d6817e2486d003becc55f00a2646970667358221220c4f35cce1693e408e4adb2fb8f7c2851949edbc6b910eea8669767a2e4768bbd64736f6c63430008180033","linkReferences":{}},"methodIdentifiers":{"AGENT_SHARE()":"4a13c7a1","BASIS_POINTS()":"e1f1c4a7","BURN_SHARE()":"93b998fb","NODE_SHARE()":"2ffb61fb","PROTOCOL_SHARE()":"51adc761","ainuToken()":"dd089c1b","authorizedCollectors(address)":"46412878","buybackAndBurn(uint256)":"0dcaa63e","claimAgentRewards()":"5ced448c","claimNodeRewards()":"a58b603b","collectTaskFee(uint256,address,address)":"70301102","createGrant(address,uint256,string)":"de2fdf77","emergencyWithdraw(address,uint256)":"95ccea67","executeGrant(uint256)":"6abe8afc","getPendingAgentRewards(address)":"798c3cbf","getPendingNodeRewards(address)":"adbba694","getTreasuryBalance()":"9b5655dc","grants(uint256)":"0c0debea","nextGrantId()":"bb8b3ea9","owner()":"8da5cb5b","pendingAgentRewards(address)":"ebb19373","pendingNodeRewards(address)":"f8f96950","renounceOwnership()":"715018a6","setAuthorizedCollector(address,bool)":"3622cc24","totalAgentRewards()":"59671454","totalBurned()":"d89135cd","totalNodeRewards()":"ecc97245","totalRevenue()":"bf2d9e0b","transferOwnership(address)":"f2fde38b"},"id":50}