{"abi":[{"type":"constructor","inputs":[{"name":"_staking","type":"address","internalType":"address"},{"name":"initialOwner","type":"address","internalType":"address"}],"stateMutability":"nonpayable"},{"type":"function","name":"APPROVAL_CRITICAL","inputs":[],"outputs":[{"name":"","type":"uint256","internalType":"uint256"}],"stateMutability":"view"},{"type":"function","name":"APPROVAL_MINOR","inputs":[],"outputs":[{"name":"","type":"uint256","internalType":"uint256"}],"stateMutability":"view"},{"type":"function","name":"APPROVAL_STANDARD","inputs":[],"outputs":[{"name":"","type":"uint256","internalType":"uint256"}],"stateMutability":"view"},{"type":"function","name":"BASIS_POINTS","inputs":[],"outputs":[{"name":"","type":"uint256","internalType":"uint256"}],"stateMutability":"view"},{"type":"function","name":"PROPOSAL_THRESHOLD","inputs":[],"outputs":[{"name":"","type":"uint256","internalType":"uint256"}],"stateMutability":"view"},{"type":"function","name":"QUORUM_CRITICAL","inputs":[],"outputs":[{"name":"","type":"uint256","internalType":"uint256"}],"stateMutability":"view"},{"type":"function","name":"QUORUM_MINOR","inputs":[],"outputs":[{"name":"","type":"uint256","internalType":"uint256"}],"stateMutability":"view"},{"type":"function","name":"QUORUM_STANDARD","inputs":[],"outputs":[{"name":"","type":"uint256","internalType":"uint256"}],"stateMutability":"view"},{"type":"function","name":"TIMELOCK_PERIOD","inputs":[],"outputs":[{"name":"","type":"uint256","internalType":"uint256"}],"stateMutability":"view"},{"type":"function","name":"VOTING_PERIOD","inputs":[],"outputs":[{"name":"","type":"uint256","internalType":"uint256"}],"stateMutability":"view"},{"type":"function","name":"cancel","inputs":[{"name":"proposalId","type":"uint256","internalType":"uint256"}],"outputs":[],"stateMutability":"nonpayable"},{"type":"function","name":"castVote","inputs":[{"name":"proposalId","type":"uint256","internalType":"uint256"},{"name":"support","type":"bool","internalType":"bool"}],"outputs":[],"stateMutability":"nonpayable"},{"type":"function","name":"execute","inputs":[{"name":"proposalId","type":"uint256","internalType":"uint256"}],"outputs":[],"stateMutability":"nonpayable"},{"type":"function","name":"getProposal","inputs":[{"name":"proposalId","type":"uint256","internalType":"uint256"}],"outputs":[{"name":"proposer","type":"address","internalType":"address"},{"name":"description","type":"string","internalType":"string"},{"name":"proposalType","type":"uint8","internalType":"enum AINUGovernance.ProposalType"},{"name":"startTime","type":"uint256","internalType":"uint256"},{"name":"endTime","type":"uint256","internalType":"uint256"},{"name":"forVotes","type":"uint256","internalType":"uint256"},{"name":"againstVotes","type":"uint256","internalType":"uint256"},{"name":"state","type":"uint8","internalType":"enum AINUGovernance.ProposalState"}],"stateMutability":"view"},{"type":"function","name":"getProposalState","inputs":[{"name":"proposalId","type":"uint256","internalType":"uint256"}],"outputs":[{"name":"","type":"uint8","internalType":"enum AINUGovernance.ProposalState"}],"stateMutability":"view"},{"type":"function","name":"hasVoted","inputs":[{"name":"proposalId","type":"uint256","internalType":"uint256"},{"name":"voter","type":"address","internalType":"address"}],"outputs":[{"name":"","type":"bool","internalType":"bool"}],"stateMutability":"view"},{"type":"function","name":"nextProposalId","inputs":[],"outputs":[{"name":"","type":"uint256","internalType":"uint256"}],"stateMutability":"view"},{"type":"function","name":"owner","inputs":[],"outputs":[{"name":"","type":"address","internalType":"address"}],"stateMutability":"view"},{"type":"function","name":"proposals","inputs":[{"name":"","type":"uint256","internalType":"uint256"}],"outputs":[{"name":"id","type":"uint256","internalType":"uint256"},{"name":"proposer","type":"address","internalType":"address"},{"name":"description","type":"string","internalType":"string"},{"name":"proposalType","type":"uint8","internalType":"enum AINUGovernance.ProposalType"},{"name":"startTime","type":"uint256","internalType":"uint256"},{"name":"endTime","type":"uint256","internalType":"uint256"},{"name":"executionTime","type":"uint256","internalType":"uint256"},{"name":"forVotes","type":"uint256","internalType":"uint256"},{"name":"againstVotes","type":"uint256","internalType":"uint256"},{"name":"abstainVotes","type":"uint256","internalType":"uint256"},{"name":"executed","type":"bool","internalType":"bool"},{"name":"cancelled","type":"bool","internalType":"bool"}],"stateMutability":"view"},{"type":"function","name":"propose","inputs":[{"name":"description","type":"string","internalType":"string"},{"name":"proposalType","type":"uint8","internalType":"enum AINUGovernance.ProposalType"}],"outputs":[{"name":"proposalId","type":"uint256","internalType":"uint256"}],"stateMutability":"nonpayable"},{"type":"function","name":"queue","inputs":[{"name":"proposalId","type":"uint256","internalType":"uint256"}],"outputs":[],"stateMutability":"nonpayable"},{"type":"function","name":"renounceOwnership","inputs":[],"outputs":[],"stateMutability":"nonpayable"},{"type":"function","name":"staking","inputs":[],"outputs":[{"name":"","type":"address","internalType":"contract AINUStaking"}],"stateMutability":"view"},{"type":"function","name":"transferOwnership","inputs":[{"name":"newOwner","type":"address","internalType":"address"}],"outputs":[],"stateMutability":"nonpayable"},{"type":"event","name":"OwnershipTransferred","inputs":[{"name":"previousOwner","type":"address","indexed":true,"internalType":"address"},{"name":"newOwner","type":"address","indexed":true,"internalType":"address"}],"anonymous":false},{"type":"event","name":"ProposalCancelled","inputs":[{"name":"proposalId","type":"uint256","indexed":true,"internalType":"uint256"}],"anonymous":false},{"type":"event","name":"ProposalCreated","inputs":[{"name":"proposalId","type":"uint256","indexed":true,"internalType":"uint256"},{"name":"proposer","type":"address","indexed":true,"internalType":"address"},{"name":"proposalType","type":"uint8","indexed":false,"internalType":"enum AINUGovernance.ProposalType"},{"name":"description","type":"string","indexed":false,"internalType":"string"}],"anonymous":false},{"type":"event","name":"ProposalExecuted","inputs":[{"name":"proposalId","type":"uint256","indexed":true,"internalType":"uint256"}],"anonymous":false},{"type":"event","name":"ProposalQueued","inputs":[{"name":"proposalId","type":"uint256","indexed":true,"internalType":"uint256"},{"name":"executionTime","type":"uint256","indexed":false,"internalType":"uint256"}],"anonymous":false},{"type":"event","name":"VoteCast","inputs":[{"name":"proposalId","type":"uint256","indexed":true,"internalType":"uint256"},{"name":"voter","type":"address","indexed":true,"internalType":"address"},{"name":"votes","type":"uint256","indexed":false,"internalType":"uint256"},{"name":"support","type":"bool","indexed":false,"internalType":"bool"}],"anonymous":false},{"type":"error","name":"OwnableInvalidOwner","inputs":[{"name":"owner","type":"address","internalType":"address"}]},{"type":"error","name":"OwnableUnauthorizedAccount","inputs":[{"name":"account","type":"address","internalType":"address"}]},{"type":"error","name":"ReentrancyGuardReentrantCall","inputs":[]}],"bytecode":{"object":"0x60a03461010f57601f61144f38819003918201601f19168301916001600160401b0383118484101761011357808492604094855283398101031261010f57602061004882610127565b916001600160a01b0391829161005e9101610127565b169182156100f7575f80546001600160a01b03198116851782556040519491908416907f8be0079c531659141344cd1fd0a4f28419497f9722a3daafe3b4186f6b6457e09080a360017f9b779b17422d0df92223018b32b4d1fa46e071723d6817e2486d003becc55f005516608052611313908161013c82396080518181816105f70152818161081101528181610c5001526111200152f35b604051631e4fbdf760e01b81525f6004820152602490fd5b5f80fd5b634e487b7160e01b5f52604160045260245ffd5b51906001600160a01b038216820361010f5756fe60406080815260049081361015610014575f80fd5b5f3560e01c8063013cf08b14610e295780630e76369f14610e0d57806315373e3d14610bd05780631f45d06114610bb45780632ab09d1414610b96578063313dc99a146107a257806340e58ee51461068e57806343859632146106435780634a5bcbf8146106265780634cf088d9146105e3578063715018a61461058c5780638da5cb5b146105655780639080936f1461053957806394ad47c71461051d57806396c4326414610501578063a6c26603146104dd578063b1610d7e146104c0578063b95fcff1146104a4578063c698e67414610488578063c7f758a8146103da578063ddf0b009146102fd578063e1f1c4a7146102e1578063f2fde38b146102525763fe0d94c114610124575f80fd5b3461024e57602036600319011261024e5781359161014061123c565b610149836110b8565b600781101561023b57810361020357825f526001602052815f2091600683015442106101c957600a8301805460ff19166001179055837f712ae1383f79ac853f8d882153778e0260ef8f03b504e2866e0593e04d2b291f5f80a260017f9b779b17422d0df92223018b32b4d1fa46e071723d6817e2486d003becc55f0055005b906020606492519162461bcd60e51b83528201526014602482015273151a5b595b1bd8dac81b9bdd08195e1c1a5c995960621b6044820152fd5b6020606492519162461bcd60e51b83528201526013602482015272141c9bdc1bdcd85b081b9bdd081c5d595d5959606a1b6044820152fd5b602182634e487b7160e01b5f525260245ffd5b5f80fd5b503461024e57602036600319011261024e576001600160a01b0382358181169391929084900361024e5761028461127e565b83156102cb5750505f54826bffffffffffffffffffffffff60a01b8216175f55167f8be0079c531659141344cd1fd0a4f28419497f9722a3daafe3b4186f6b6457e05f80a3005b905f6024925191631e4fbdf760e01b8352820152fd5b503461024e575f36600319011261024e57602090516127108152f35b50903461024e57602036600319011261024e5780359161031c836110b8565b60078110156103c75760020361038b57825f526001602052805f206202a3004201928342116103785750916020918160067f9a2e42fd6722813d69113e7d0079d3d940171428df7373df9c7f7617cfda289295015551908152a2005b601190634e487b7160e01b5f525260245ffd5b906020606492519162461bcd60e51b83528201526016602482015275141c9bdc1bdcd85b081b9bdd081cdd58d8d95959195960521b6044820152fd5b602183634e487b7160e01b5f525260245ffd5b503461024e57602036600319011261024e57813590815f526001602052610484815f2060018060a01b036001820154169360ff60038301541695820154600583015460078401549161046661043f60026104386008890154976110b8565b9701610f6b565b9961045d89519b8c809c6020610100928392815201528c019061100d565b988a019061104b565b6060880152608087015260a086015260c085015260e084019061106c565b0390f35b503461024e575f36600319011261024e57602090516117708152f35b503461024e575f36600319011261024e57602090516107d08152f35b503461024e575f36600319011261024e576020905162093a808152f35b503461024e575f36600319011261024e576020905169152d02c7e14af68000008152f35b503461024e575f36600319011261024e57602090516119c88152f35b503461024e575f36600319011261024e57602090516113888152f35b503461024e57602036600319011261024e5761056361055a602093356110b8565b9151809261106c565bf35b503461024e575f36600319011261024e575f5490516001600160a01b039091168152602090f35b3461024e575f36600319011261024e576105a461127e565b5f80546001600160a01b0319811682556001600160a01b03167f8be0079c531659141344cd1fd0a4f28419497f9722a3daafe3b4186f6b6457e08280a3005b503461024e575f36600319011261024e57517f00000000000000000000000000000000000000000000000000000000000000006001600160a01b03168152602090f35b503461024e575f36600319011261024e57602090516202a3008152f35b503461024e578060031936011261024e576024356001600160a01b0381169081900361024e57602092355f5260018352600b825f2001905f52825260ff815f20541690519015158152f35b50903461024e57602036600319011261024e57803591825f526001602052805f2060018060a01b03806001830154163314908115610795575b501561075257600a019182549160ff831661070f57505061ff0019166101001790557f416e669c63d9a3a5e36ee7cc7e2104b8db28ccd286aa18966e98fa230c73b08c5f80a2005b906020606492519162461bcd60e51b8352820152601960248201527f50726f706f73616c20616c7265616479206578656375746564000000000000006044820152fd5b815162461bcd60e51b8152602081850152601860248201527f4e6f7420617574686f72697a656420746f2063616e63656c00000000000000006044820152606490fd5b90505f541633145f6106c7565b503461024e578060031936011261024e5781359067ffffffffffffffff80831161024e573660238401121561024e57828401359080821161024e5760243681848701011161024e57803591600383101561024e5784516303d3b32360e51b8152338882015290610120808385817f00000000000000000000000000000000000000000000000000000000000000006001600160a01b03165afa918215610b8c575f92610ac9575b505069152d02c7e14af680000091505110610a8757600254945f19808714610a7557600197888801600255875f52602098808a5289885f20938a8555828501336bffffffffffffffffffffffff60a01b8254161790558860028601936108af8554610efd565b601f8111610a21575b50885f601f84116001146109b157839495505f946109a4575b50501b918960031b1c19161790555b6003820160ff1981541660ff8716179055428183015562093a80420190814211610992575092879492600a837f8356bc5007056a642094f44da4e8e22469db3e8a36b5811c0f91f735f1491c799660058a9601555f60068201555f60078201555f60088201555f60098201550161ffff1981541690556109628851809561104b565b878a85015282888501520160608301375f606085830101526060813395601f80199101168101030190a351908152f35b60118591634e487b7160e01b5f52525ffd5b890101359250885f6108d1565b92601f9594919295198116875f52855f20955f905b888d848410610a025750505050106109e8575b5050505087811b0190556108e0565b60f88c60031b161c1991880101351690555f8087816109d9565b88019096013588559490960195948401948c948f9350908101906109c6565b9092939150845f52815f2090601f8c0160051c8201928c10610a6b575b918e949391601f8d940160051c01905b818110610a5b57506108b8565b5f81558f95508c93508201610a4e565b9091508190610a3e565b82601189634e487b7160e01b5f52525ffd5b85601d606492602087519362461bcd60e51b85528401528201527f496e73756666696369656e74207374616b6520746f2070726f706f73650000006044820152fd5b9080925083813d8311610b85575b610ae18183610f35565b8101031261024e57865191820190811182821017610b73578652815181526020820151602082015285820151868201526060820151606082015260808201518881101561024e57608082015260a082015191821515830361024e5769152d02c7e14af68000009260a083015260c081015160c083015260e081015160e083015261010080910151908201525f80610849565b8360418a634e487b7160e01b5f52525ffd5b503d610ad7565b87513d5f823e3d90fd5b503461024e575f36600319011261024e576020906002549051908152f35b503461024e575f36600319011261024e5760209051610fa08152f35b50903461024e578160031936011261024e57803560249283358015159081810361024e57610bfc61123c565b835f5260209060018252835f2090610c13866110b8565b6007811015610dfb57600103610dc557600b8201335f5280845260ff865f205416610d93578551635da6a21b60e11b815233898201529784898b817f00000000000000000000000000000000000000000000000000000000000000006001600160a01b03165afa988915610b8c575f99610d64575b508815610d3057507fb898e75d5aac8de2f407e4a683c8d909e832d1e371e3bff0fa3ed934e88d956296979850335f528352845f20600160ff19825416179055600c8201835287855f20555f14610d1b57600701610ce7878254611079565b90555b82519586528501523393a360017f9b779b17422d0df92223018b32b4d1fa46e071723d6817e2486d003becc55f0055005b600801610d29878254611079565b9055610cea565b865162461bcd60e51b8152908101859052600f818b01526e2737903b37ba34b733903837bbb2b960891b6044820152606490fd5b9098508481813d8311610d8c575b610d7c8183610f35565b8101031261024e5751975f610c88565b503d610d72565b855162461bcd60e51b8152808901859052600d818b01526c105b1c9958591e481d9bdd1959609a1b6044820152606490fd5b845162461bcd60e51b81528088018490526011818a015270566f74696e67206e6f742061637469766560781b6044820152606490fd5b88602189634e487b7160e01b5f52525ffd5b503461024e575f36600319011261024e5760209051611d4c8152f35b503461024e57602036600319011261024e5781355f526001602052805f209160ff83549360018060a01b0360018201541690610e6760028201610f6b565b83600383015416948201546005830154600684015490600785015492610ec2610eb7600888015496600a60098a0154990154998d519e8f9e8f6101809384938252602082015201528d019061100d565b9960608c019061104b565b60808a015260a089015260c088015260e0870152610100860152610120850152818116151561014085015260081c1615156101608301520390f35b90600182811c92168015610f2b575b6020831014610f1757565b634e487b7160e01b5f52602260045260245ffd5b91607f1691610f0c565b90601f8019910116810190811067ffffffffffffffff821117610f5757604052565b634e487b7160e01b5f52604160045260245ffd5b9060405191825f8254610f7d81610efd565b908184526020946001916001811690815f14610feb5750600114610fad575b505050610fab92500383610f35565b565b5f90815285812095935091905b818310610fd3575050610fab93508201015f8080610f9c565b85548884018501529485019487945091830191610fba565b92505050610fab94925060ff191682840152151560051b8201015f8080610f9c565b91908251928382525f5b848110611037575050825f602080949584010152601f8019910116010190565b602081830181015184830182015201611017565b9060038210156110585752565b634e487b7160e01b5f52602160045260245ffd5b9060078210156110585752565b9190820180921161108657565b634e487b7160e01b5f52601160045260245ffd5b81156110a4570490565b634e487b7160e01b5f52601260045260245ffd5b5f52600160205260405f20600a81015460ff8160081c166112355760ff1661122f5760058101544210611229576110f560ff6003830154166112a9565b600783015490611109600885015483611079565b6040516340bd8e6960e11b815293906020856004817f00000000000000000000000000000000000000000000000000000000000000006001600160a01b03165afa94851561121e575f956111ea575b50612710918282028215968382048514881715611086576111789161109a565b10941593846111c1575b5050505081156111b8575b506111b2576006015480156111ac5742106111a757600490565b600490565b50600290565b50600390565b9050155f61118d565b9091809394508102928184041490151715611086576111df9161109a565b10155f808080611182565b9094506020813d602011611216575b8161120660209383610f35565b8101031261024e5751935f611158565b3d91506111f9565b6040513d5f823e3d90fd5b50600190565b50600590565b5050600690565b7f9b779b17422d0df92223018b32b4d1fa46e071723d6817e2486d003becc55f00600281541461126c5760029055565b604051633ee5aeb560e01b8152600490fd5b5f546001600160a01b0316330361129157565b60405163118cdaa760e01b8152336004820152602490fd5b600381101561105857806112c2575061177090611d4c90565b6001036112d357610fa0906119c890565b6107d0906113889056fea2646970667358221220e7a9d513be7f14dd1fec92e8a5ddb7c3e2cf4f54ff72c65274a4ee2cff49f03564736f6c63430008180033","linkReferences":{}},"methodIdentifiers":{"APPROVAL_CRITICAL()":"0e76369f","APPROVAL_MINOR()":"94ad47c7","APPROVAL_STANDARD()":"96c43264","BASIS_POINTS()":"e1f1c4a7","PROPOSAL_THRESHOLD()":"a6c26603","QUORUM_CRITICAL()":"c698e674","QUORUM_MINOR()":"b95fcff1","QUORUM_STANDARD()":"1f45d061","TIMELOCK_PERIOD()":"4a5bcbf8","VOTING_PERIOD()":"b1610d7e","cancel(uint256)":"40e58ee5","castVote(uint256,bool)":"15373e3d","execute(uint256)":"fe0d94c1","getProposal(uint256)":"c7f758a8","getProposalState(uint256)":"9080936f","hasVoted(uint256,address)":"43859632","nextProposalId()":"2ab09d14","owner()":"8da5cb5b","proposals(uint256)":"013cf08b","propose(string,uint8)":"313dc99a","queue(uint256)":"ddf0b009","renounceOwnership()":"715018a6","staking()":"4cf088d9","transferOwnership(address)":"f2fde38b"},"id":47}